{
  "contractName": "EVotingSystem",
  "abi": [
    {
      "inputs": [
        {
          "internalType": "address",
          "name": "candidate1",
          "type": "address"
        },
        {
          "internalType": "address",
          "name": "candidate2",
          "type": "address"
        },
        {
          "internalType": "address",
          "name": "candidate3",
          "type": "address"
        }
      ],
      "stateMutability": "nonpayable",
      "type": "constructor"
    },
    {
      "anonymous": false,
      "inputs": [
        {
          "indexed": false,
          "internalType": "string",
          "name": "name",
          "type": "string"
        },
        {
          "indexed": true,
          "internalType": "address",
          "name": "candidateAddress",
          "type": "address"
        }
      ],
      "name": "CandidateAdded",
      "type": "event"
    },
    {
      "anonymous": false,
      "inputs": [
        {
          "indexed": true,
          "internalType": "address",
          "name": "voterAddress",
          "type": "address"
        },
        {
          "indexed": true,
          "internalType": "address",
          "name": "candidateAddress",
          "type": "address"
        }
      ],
      "name": "VoteCast",
      "type": "event"
    },
    {
      "anonymous": false,
      "inputs": [
        {
          "indexed": true,
          "internalType": "address",
          "name": "voterAddress",
          "type": "address"
        },
        {
          "indexed": false,
          "internalType": "string",
          "name": "name",
          "type": "string"
        }
      ],
      "name": "VoterRegistered",
      "type": "event"
    },
    {
      "inputs": [
        {
          "internalType": "uint256",
          "name": "",
          "type": "uint256"
        }
      ],
      "name": "candidateAddresses",
      "outputs": [
        {
          "internalType": "address",
          "name": "",
          "type": "address"
        }
      ],
      "stateMutability": "view",
      "type": "function",
      "constant": true
    },
    {
      "inputs": [
        {
          "internalType": "address",
          "name": "",
          "type": "address"
        }
      ],
      "name": "candidates",
      "outputs": [
        {
          "internalType": "string",
          "name": "name",
          "type": "string"
        },
        {
          "internalType": "address",
          "name": "candidateAddress",
          "type": "address"
        },
        {
          "internalType": "uint256",
          "name": "voteCount",
          "type": "uint256"
        }
      ],
      "stateMutability": "view",
      "type": "function",
      "constant": true
    },
    {
      "inputs": [
        {
          "internalType": "uint256",
          "name": "",
          "type": "uint256"
        }
      ],
      "name": "registeredVoters",
      "outputs": [
        {
          "internalType": "address",
          "name": "",
          "type": "address"
        }
      ],
      "stateMutability": "view",
      "type": "function",
      "constant": true
    },
    {
      "inputs": [
        {
          "internalType": "address",
          "name": "",
          "type": "address"
        }
      ],
      "name": "voters",
      "outputs": [
        {
          "internalType": "string",
          "name": "name",
          "type": "string"
        },
        {
          "internalType": "uint256",
          "name": "age",
          "type": "uint256"
        },
        {
          "internalType": "uint256",
          "name": "aadhaar",
          "type": "uint256"
        },
        {
          "internalType": "bool",
          "name": "hasVoted",
          "type": "bool"
        }
      ],
      "stateMutability": "view",
      "type": "function",
      "constant": true
    },
    {
      "inputs": [
        {
          "internalType": "uint256",
          "name": "",
          "type": "uint256"
        }
      ],
      "name": "votersWhoVoted",
      "outputs": [
        {
          "internalType": "address",
          "name": "",
          "type": "address"
        }
      ],
      "stateMutability": "view",
      "type": "function",
      "constant": true
    },
    {
      "inputs": [
        {
          "internalType": "string",
          "name": "_name",
          "type": "string"
        },
        {
          "internalType": "uint256",
          "name": "_age",
          "type": "uint256"
        },
        {
          "internalType": "uint256",
          "name": "_aadhaar",
          "type": "uint256"
        }
      ],
      "name": "registerVoter",
      "outputs": [],
      "stateMutability": "nonpayable",
      "type": "function"
    },
    {
      "inputs": [
        {
          "internalType": "address",
          "name": "_candidateAddress",
          "type": "address"
        }
      ],
      "name": "vote",
      "outputs": [],
      "stateMutability": "nonpayable",
      "type": "function"
    },
    {
      "inputs": [],
      "name": "showVoteCount",
      "outputs": [
        {
          "components": [
            {
              "internalType": "string",
              "name": "name",
              "type": "string"
            },
            {
              "internalType": "address",
              "name": "candidateAddress",
              "type": "address"
            },
            {
              "internalType": "uint256",
              "name": "voteCount",
              "type": "uint256"
            }
          ],
          "internalType": "struct EVotingSystem.Candidate[]",
          "name": "",
          "type": "tuple[]"
        }
      ],
      "stateMutability": "view",
      "type": "function",
      "constant": true
    },
    {
      "inputs": [],
      "name": "giveResult",
      "outputs": [
        {
          "components": [
            {
              "internalType": "string",
              "name": "name",
              "type": "string"
            },
            {
              "internalType": "address",
              "name": "candidateAddress",
              "type": "address"
            },
            {
              "internalType": "uint256",
              "name": "voteCount",
              "type": "uint256"
            }
          ],
          "internalType": "struct EVotingSystem.Candidate",
          "name": "",
          "type": "tuple"
        }
      ],
      "stateMutability": "view",
      "type": "function",
      "constant": true
    }
  ],
  "bytecode": "0x60806040523480156200001157600080fd5b5060405162001f2d38038062001f2d833981810160405281019062000037919062000377565b6200007e6040518060400160405280600a81526020017f4a6f686e20536d69746800000000000000000000000000000000000000000000815250846200011560201b60201c565b620000c56040518060400160405280600881526020017f4a616e6520446f65000000000000000000000000000000000000000000000000815250836200011560201b60201c565b6200010c6040518060400160405280600c81526020017f416c6578204a6f686e736f6e0000000000000000000000000000000000000000815250826200011560201b60201c565b50505062000548565b60405180606001604052808381526020018273ffffffffffffffffffffffffffffffffffffffff1681526020016000815250600360008373ffffffffffffffffffffffffffffffffffffffff1673ffffffffffffffffffffffffffffffffffffffff1681526020019081526020016000206000820151816000019080519060200190620001a4929190620002b0565b5060208201518160010160006101000a81548173ffffffffffffffffffffffffffffffffffffffff021916908373ffffffffffffffffffffffffffffffffffffffff160217905550604082015181600201559050506004819080600181540180825580915050600190039060005260206000200160009091909190916101000a81548173ffffffffffffffffffffffffffffffffffffffff021916908373ffffffffffffffffffffffffffffffffffffffff1602179055508073ffffffffffffffffffffffffffffffffffffffff167f833f8a6afe89d971296f8882c8b9d117bc81d68f14aaabc47cc227218d83516883604051620002a491906200040e565b60405180910390a25050565b828054620002be90620004b8565b90600052602060002090601f016020900481019282620002e257600085556200032e565b82601f10620002fd57805160ff19168380011785556200032e565b828001600101855582156200032e579182015b828111156200032d57825182559160200191906001019062000310565b5b5090506200033d919062000341565b5090565b5b808211156200035c57600081600090555060010162000342565b5090565b60008151905062000371816200052e565b92915050565b6000806000606084860312156200038d57600080fd5b60006200039d8682870162000360565b9350506020620003b08682870162000360565b9250506040620003c38682870162000360565b9150509250925092565b6000620003da8262000432565b620003e681856200043d565b9350620003f881856020860162000482565b62000403816200051d565b840191505092915050565b600060208201905081810360008301526200042a8184620003cd565b905092915050565b600081519050919050565b600082825260208201905092915050565b60006200045b8262000462565b9050919050565b600073ffffffffffffffffffffffffffffffffffffffff82169050919050565b60005b83811015620004a257808201518184015260208101905062000485565b83811115620004b2576000848401525b50505050565b60006002820490506001821680620004d157607f821691505b60208210811415620004e857620004e7620004ee565b5b50919050565b7f4e487b7100000000000000000000000000000000000000000000000000000000600052602260045260246000fd5b6000601f19601f8301169050919050565b62000539816200044e565b81146200054557600080fd5b50565b6119d580620005586000396000f3fe608060405234801561001057600080fd5b50600436106100935760003560e01c80636dd7d8ea116100665780636dd7d8ea146101325780638ab66a901461014e578063a3ec138d14610180578063d55d73c5146101b3578063e69921af146101e357610093565b8063020f11721461009857806310b01b85146100b45780632436e06b146100e457806347f7691414610114575b600080fd5b6100b260048036038101906100ad9190611150565b610201565b005b6100ce60048036038101906100c991906111b7565b61043f565b6040516100db9190611506565b60405180910390f35b6100fe60048036038101906100f991906111b7565b61047e565b60405161010b9190611506565b60405180910390f35b61011c6104bd565b604051610129919061168f565b60405180910390f35b61014c60048036038101906101479190611127565b6107f4565b005b61016860048036038101906101639190611127565b610b51565b60405161017793929190611565565b60405180910390f35b61019a60048036038101906101959190611127565b610c23565b6040516101aa94939291906115a3565b60405180910390f35b6101cd60048036038101906101c891906111b7565b610ce8565b6040516101da9190611506565b60405180910390f35b6101eb610d27565b6040516101f89190611521565b60405180910390f35b816012811015610246576040517f08c379a000000000000000000000000000000000000000000000000000000000815260040161023d906115ef565b60405180910390fd5b6000600260003373ffffffffffffffffffffffffffffffffffffffff1673ffffffffffffffffffffffffffffffffffffffff16815260200190815260200160002060020154146102cb576040517f08c379a00000000000000000000000000000000000000000000000000000000081526004016102c29061164f565b60405180910390fd5b6000604051806080016040528086815260200185815260200184815260200160001515815250905080600260003373ffffffffffffffffffffffffffffffffffffffff1673ffffffffffffffffffffffffffffffffffffffff168152602001908152602001600020600082015181600001908051906020019061034f929190610fbb565b50602082015181600101556040820151816002015560608201518160030160006101000a81548160ff0219169083151502179055509050506000339080600181540180825580915050600190039060005260206000200160009091909190916101000a81548173ffffffffffffffffffffffffffffffffffffffff021916908373ffffffffffffffffffffffffffffffffffffffff1602179055503373ffffffffffffffffffffffffffffffffffffffff167fffeb7702be7dcd8fee170d954b70afb9a7c78f7f5cff232d037e7b9d8243356a866040516104309190611543565b60405180910390a25050505050565b6001818154811061044f57600080fd5b906000526020600020016000915054906101000a900473ffffffffffffffffffffffffffffffffffffffff1681565b6000818154811061048e57600080fd5b906000526020600020016000915054906101000a900473ffffffffffffffffffffffffffffffffffffffff1681565b6104c5611041565b6104cd611041565b6000805b6004805490508110156107eb5781600360006004848154811061051d577f4e487b7100000000000000000000000000000000000000000000000000000000600052603260045260246000fd5b9060005260206000200160009054906101000a900473ffffffffffffffffffffffffffffffffffffffff1673ffffffffffffffffffffffffffffffffffffffff1673ffffffffffffffffffffffffffffffffffffffff1681526020019081526020016000206002015411156107d85760036000600483815481106105ca577f4e487b7100000000000000000000000000000000000000000000000000000000600052603260045260246000fd5b9060005260206000200160009054906101000a900473ffffffffffffffffffffffffffffffffffffffff1673ffffffffffffffffffffffffffffffffffffffff1673ffffffffffffffffffffffffffffffffffffffff1681526020019081526020016000206002015491506003600060048381548110610673577f4e487b7100000000000000000000000000000000000000000000000000000000600052603260045260246000fd5b9060005260206000200160009054906101000a900473ffffffffffffffffffffffffffffffffffffffff1673ffffffffffffffffffffffffffffffffffffffff1673ffffffffffffffffffffffffffffffffffffffff1681526020019081526020016000206040518060600160405290816000820180546106f390611858565b80601f016020809104026020016040519081016040528092919081815260200182805461071f90611858565b801561076c5780601f106107415761010080835404028352916020019161076c565b820191906000526020600020905b81548152906001019060200180831161074f57829003601f168201915b505050505081526020016001820160009054906101000a900473ffffffffffffffffffffffffffffffffffffffff1673ffffffffffffffffffffffffffffffffffffffff1673ffffffffffffffffffffffffffffffffffffffff16815260200160028201548152505092505b80806107e39061188a565b9150506104d1565b50819250505090565b6000600260003373ffffffffffffffffffffffffffffffffffffffff1673ffffffffffffffffffffffffffffffffffffffff16815260200190815260200160002060020154141561087a576040517f08c379a00000000000000000000000000000000000000000000000000000000081526004016108719061160f565b60405180910390fd5b600260003373ffffffffffffffffffffffffffffffffffffffff1673ffffffffffffffffffffffffffffffffffffffff16815260200190815260200160002060030160009054906101000a900460ff161561090a576040517f08c379a00000000000000000000000000000000000000000000000000000000081526004016109019061166f565b60405180910390fd5b600073ffffffffffffffffffffffffffffffffffffffff16600360008373ffffffffffffffffffffffffffffffffffffffff1673ffffffffffffffffffffffffffffffffffffffff16815260200190815260200160002060010160009054906101000a900473ffffffffffffffffffffffffffffffffffffffff1673ffffffffffffffffffffffffffffffffffffffff1614156109dc576040517f08c379a00000000000000000000000000000000000000000000000000000000081526004016109d39061162f565b60405180910390fd5b6001600260003373ffffffffffffffffffffffffffffffffffffffff1673ffffffffffffffffffffffffffffffffffffffff16815260200190815260200160002060030160006101000a81548160ff0219169083151502179055506001339080600181540180825580915050600190039060005260206000200160009091909190916101000a81548173ffffffffffffffffffffffffffffffffffffffff021916908373ffffffffffffffffffffffffffffffffffffffff1602179055506001600360008373ffffffffffffffffffffffffffffffffffffffff1673ffffffffffffffffffffffffffffffffffffffff1681526020019081526020016000206002016000828254610aed9190611778565b925050819055508073ffffffffffffffffffffffffffffffffffffffff163373ffffffffffffffffffffffffffffffffffffffff167f113ed09b18bb8fe2635af16f21d67464502d920ff1015abfe08dbe9a2971a7e260405160405180910390a350565b6003602052806000526040600020600091509050806000018054610b7490611858565b80601f0160208091040260200160405190810160405280929190818152602001828054610ba090611858565b8015610bed5780601f10610bc257610100808354040283529160200191610bed565b820191906000526020600020905b815481529060010190602001808311610bd057829003601f168201915b5050505050908060010160009054906101000a900473ffffffffffffffffffffffffffffffffffffffff16908060020154905083565b6002602052806000526040600020600091509050806000018054610c4690611858565b80601f0160208091040260200160405190810160405280929190818152602001828054610c7290611858565b8015610cbf5780601f10610c9457610100808354040283529160200191610cbf565b820191906000526020600020905b815481529060010190602001808311610ca257829003601f168201915b5050505050908060010154908060020154908060030160009054906101000a900460ff16905084565b60048181548110610cf857600080fd5b906000526020600020016000915054906101000a900473ffffffffffffffffffffffffffffffffffffffff1681565b6060600060048054905067ffffffffffffffff811115610d70577f4e487b7100000000000000000000000000000000000000000000000000000000600052604160045260246000fd5b604051908082528060200260200182016040528015610da957816020015b610d96611041565b815260200190600190039081610d8e5790505b50905060005b600480549050811015610fb3576003600060048381548110610dfa577f4e487b7100000000000000000000000000000000000000000000000000000000600052603260045260246000fd5b9060005260206000200160009054906101000a900473ffffffffffffffffffffffffffffffffffffffff1673ffffffffffffffffffffffffffffffffffffffff1673ffffffffffffffffffffffffffffffffffffffff168152602001908152602001600020604051806060016040529081600082018054610e7a90611858565b80601f0160208091040260200160405190810160405280929190818152602001828054610ea690611858565b8015610ef35780601f10610ec857610100808354040283529160200191610ef3565b820191906000526020600020905b815481529060010190602001808311610ed657829003601f168201915b505050505081526020016001820160009054906101000a900473ffffffffffffffffffffffffffffffffffffffff1673ffffffffffffffffffffffffffffffffffffffff1673ffffffffffffffffffffffffffffffffffffffff168152602001600282015481525050828281518110610f95577f4e487b7100000000000000000000000000000000000000000000000000000000600052603260045260246000fd5b60200260200101819052508080610fab9061188a565b915050610daf565b508091505090565b828054610fc790611858565b90600052602060002090601f016020900481019282610fe95760008555611030565b82601f1061100257805160ff1916838001178555611030565b82800160010185558215611030579182015b8281111561102f578251825591602001919060010190611014565b5b50905061103d9190611078565b5090565b604051806060016040528060608152602001600073ffffffffffffffffffffffffffffffffffffffff168152602001600081525090565b5b80821115611091576000816000905550600101611079565b5090565b60006110a86110a3846116e2565b6116b1565b9050828152602081018484840111156110c057600080fd5b6110cb848285611816565b509392505050565b6000813590506110e281611971565b92915050565b600082601f8301126110f957600080fd5b8135611109848260208601611095565b91505092915050565b60008135905061112181611988565b92915050565b60006020828403121561113957600080fd5b6000611147848285016110d3565b91505092915050565b60008060006060848603121561116557600080fd5b600084013567ffffffffffffffff81111561117f57600080fd5b61118b868287016110e8565b935050602061119c86828701611112565b92505060406111ad86828701611112565b9150509250925092565b6000602082840312156111c957600080fd5b60006111d784828501611112565b91505092915050565b60006111ec8383611448565b905092915050565b6111fd816117ce565b82525050565b61120c816117ce565b82525050565b600061121d82611722565b6112278185611745565b93508360208202850161123985611712565b8060005b85811015611275578484038952815161125685826111e0565b945061126183611738565b925060208a0199505060018101905061123d565b50829750879550505050505092915050565b611290816117e0565b82525050565b60006112a18261172d565b6112ab8185611756565b93506112bb818560208601611825565b6112c481611960565b840191505092915050565b60006112da8261172d565b6112e48185611767565b93506112f4818560208601611825565b6112fd81611960565b840191505092915050565b6000611315601c83611767565b91507f596f7520617265206e6f7420656c696769626c6520746f20766f7465000000006000830152602082019050919050565b6000611355601e83611767565b91507f596f7520617265206e6f74207265676973746572656420746f20766f746500006000830152602082019050919050565b6000611395601183611767565b91507f496e76616c69642063616e6469646174650000000000000000000000000000006000830152602082019050919050565b60006113d5601883611767565b91507f566f74657220616c7265616479207265676973746572656400000000000000006000830152602082019050919050565b6000611415601683611767565b91507f596f752063616e20766f7465206f6e6c79206f6e6365000000000000000000006000830152602082019050919050565b600060608301600083015184820360008601526114658282611296565b915050602083015161147a60208601826111f4565b50604083015161148d60408601826114e8565b508091505092915050565b600060608301600083015184820360008601526114b58282611296565b91505060208301516114ca60208601826111f4565b5060408301516114dd60408601826114e8565b508091505092915050565b6114f18161180c565b82525050565b6115008161180c565b82525050565b600060208201905061151b6000830184611203565b92915050565b6000602082019050818103600083015261153b8184611212565b905092915050565b6000602082019050818103600083015261155d81846112cf565b905092915050565b6000606082019050818103600083015261157f81866112cf565b905061158e6020830185611203565b61159b60408301846114f7565b949350505050565b600060808201905081810360008301526115bd81876112cf565b90506115cc60208301866114f7565b6115d960408301856114f7565b6115e66060830184611287565b95945050505050565b6000602082019050818103600083015261160881611308565b9050919050565b6000602082019050818103600083015261162881611348565b9050919050565b6000602082019050818103600083015261164881611388565b9050919050565b60006020820190508181036000830152611668816113c8565b9050919050565b6000602082019050818103600083015261168881611408565b9050919050565b600060208201905081810360008301526116a98184611498565b905092915050565b6000604051905081810181811067ffffffffffffffff821117156116d8576116d7611931565b5b8060405250919050565b600067ffffffffffffffff8211156116fd576116fc611931565b5b601f19601f8301169050602081019050919050565b6000819050602082019050919050565b600081519050919050565b600081519050919050565b6000602082019050919050565b600082825260208201905092915050565b600082825260208201905092915050565b600082825260208201905092915050565b60006117838261180c565b915061178e8361180c565b9250827fffffffffffffffffffffffffffffffffffffffffffffffffffffffffffffffff038211156117c3576117c26118d3565b5b828201905092915050565b60006117d9826117ec565b9050919050565b60008115159050919050565b600073ffffffffffffffffffffffffffffffffffffffff82169050919050565b6000819050919050565b82818337600083830152505050565b60005b83811015611843578082015181840152602081019050611828565b83811115611852576000848401525b50505050565b6000600282049050600182168061187057607f821691505b6020821081141561188457611883611902565b5b50919050565b60006118958261180c565b91507fffffffffffffffffffffffffffffffffffffffffffffffffffffffffffffffff8214156118c8576118c76118d3565b5b600182019050919050565b7f4e487b7100000000000000000000000000000000000000000000000000000000600052601160045260246000fd5b7f4e487b7100000000000000000000000000000000000000000000000000000000600052602260045260246000fd5b7f4e487b7100000000000000000000000000000000000000000000000000000000600052604160045260246000fd5b6000601f19601f8301169050919050565b61197a816117ce565b811461198557600080fd5b50565b6119918161180c565b811461199c57600080fd5b5056fea264697066735822122061b721b4e977ac9e7b43bf22e1ca55f743a2beb42ed7a2b4ebf38f6698a1dcd264736f6c63430008000033",
  "immutableReferences": {},
  "source": "// SPDX-License-Identifier: MIT\r\npragma solidity ^0.8.0;\r\n\r\n\r\ncontract EVotingSystem{\r\n    // Structure to store voter information\r\n    struct Voter {\r\n        string name;\r\n        uint age;\r\n        uint aadhaar;\r\n        bool hasVoted;\r\n    }\r\n\r\n    // Structure to store candidate information\r\n    struct Candidate {\r\n        string name;\r\n        address candidateAddress;\r\n        uint voteCount;\r\n    }\r\n\r\n    // Arrays to store registered voters and candidates\r\n    address[] public registeredVoters;\r\n    address[] public votersWhoVoted;\r\n\r\n    mapping(address => Voter) public voters;\r\n    mapping(address => Candidate) public candidates;\r\n    address[] public candidateAddresses;\r\n\r\n    // Events for logging actions\r\n    event VoterRegistered(address indexed voterAddress, string name);\r\n    event VoteCast(address indexed voterAddress, address indexed candidateAddress);\r\n    event CandidateAdded(string name, address indexed candidateAddress);\r\n\r\n    // Constructor to initialize the candidates\r\n    constructor(address candidate1, address candidate2, address candidate3) {\r\n        _addCandidate(\"John Smith\", candidate1);\r\n        _addCandidate(\"Jane Doe\", candidate2);\r\n        _addCandidate(\"Alex Johnson\", candidate3);\r\n    }\r\n\r\n    // Modifier to check voter eligibility\r\n    modifier isEligible(uint age) {\r\n        require(age >= 18, \"You are not eligible to vote\");\r\n        _;\r\n    }\r\n\r\n//     //Private function to add a candidate\r\n    function _addCandidate(string memory _name, address _candidateAddress) private {\r\n        candidates[_candidateAddress] = Candidate(_name, _candidateAddress, 0);\r\n        candidateAddresses.push(_candidateAddress);\r\n\r\n        // Emit event when a candidate is added\r\n        emit CandidateAdded(_name, _candidateAddress);\r\n    }\r\n\r\n    // Function to register voters\r\n    function registerVoter(string memory _name, uint _age, uint _aadhaar) public isEligible(_age) {\r\n        require(voters[msg.sender].aadhaar == 0, \"Voter already registered\");\r\n\r\n        Voter memory newVoter = Voter({\r\n            name: _name,\r\n            age: _age,\r\n            aadhaar: _aadhaar,\r\n            hasVoted: false\r\n        });\r\n\r\n        voters[msg.sender] = newVoter;\r\n        registeredVoters.push(msg.sender);\r\n\r\n        // Emit event when a voter registers\r\n        emit VoterRegistered(msg.sender, _name);\r\n    }\r\n\r\n    // Function to cast a vote\r\n    function vote(address _candidateAddress) public {\r\n        require(voters[msg.sender].aadhaar != 0, \"You are not registered to vote\");\r\n        require(!voters[msg.sender].hasVoted, \"You can vote only once\");\r\n        require(candidates[_candidateAddress].candidateAddress != address(0), \"Invalid candidate\");\r\n\r\n        voters[msg.sender].hasVoted = true;\r\n        votersWhoVoted.push(msg.sender);\r\n        candidates[_candidateAddress].voteCount += 1;\r\n\r\n        // Emit event when a vote is cast\r\n        emit VoteCast(msg.sender, _candidateAddress);\r\n    }\r\n\r\n    // Function to display the number of votes each candidate has received\r\n    function showVoteCount() public view returns (Candidate[] memory) {\r\n        Candidate[] memory results = new Candidate[](candidateAddresses.length);\r\n        for (uint i = 0; i < candidateAddresses.length; i++) {\r\n            results[i] = candidates[candidateAddresses[i]];\r\n        }\r\n        return results;\r\n    }\r\n\r\n    // Function to give the result of the voting\r\n    function giveResult() public view returns (Candidate memory) {\r\n        Candidate memory winningCandidate;\r\n        uint maxVotes = 0;\r\n        for (uint i = 0; i < candidateAddresses.length; i++) {\r\n            if (candidates[candidateAddresses[i]].voteCount > maxVotes) {\r\n                maxVotes = candidates[candidateAddresses[i]].voteCount;\r\n                winningCandidate = candidates[candidateAddresses[i]];\r\n            }\r\n        }\r\n        return winningCandidate;\r\n    }\r\n}\r\n",
  "sourcePath": "C:\\Users\\Sarthak\\Desktop\\Blockchain College\\Project\\implementation\\contracts\\EVotingSystem.sol",
  "compiler": {
    "name": "solc",
    "version": "0.8.0+commit.c7dfd78e.Emscripten.clang"
  },
  "schemaVersion": "3.4.16",
  "updatedAt": "2024-11-12T09:01:35.209Z",
  "networkType": "ethereum",
  "devdoc": {
    "kind": "dev",
    "methods": {},
    "version": 1
  },
  "userdoc": {
    "kind": "user",
    "methods": {},
    "version": 1
  }
}